{
  "contractName": "Register",
  "abi": [
    {
      "constant": false,
      "inputs": [
        {
          "name": "_info",
          "type": "string"
        }
      ],
      "name": "setInfo",
      "outputs": [],
      "payable": false,
      "stateMutability": "nonpayable",
      "type": "function"
    },
    {
      "constant": true,
      "inputs": [],
      "name": "getInfo",
      "outputs": [
        {
          "name": "",
          "type": "string"
        }
      ],
      "payable": false,
      "stateMutability": "view",
      "type": "function"
    }
  ],
  "bytecode": "0x608060405234801561001057600080fd5b50610306806100206000396000f3fe608060405234801561001057600080fd5b50600436106100365760003560e01c80635a9b0b891461003b578063937f6e77146100be575b600080fd5b610043610179565b6040518080602001828103825283818151815260200191508051906020019080838360005b83811015610083578082015181840152602081019050610068565b50505050905090810190601f1680156100b05780820380516001836020036101000a031916815260200191505b509250505060405180910390f35b610177600480360360208110156100d457600080fd5b81019080803590602001906401000000008111156100f157600080fd5b82018360208201111561010357600080fd5b8035906020019184600183028401116401000000008311171561012557600080fd5b91908080601f016020809104026020016040519081016040528093929190818152602001838380828437600081840152601f19601f82011690508083019250505050505050919291929050505061021b565b005b606060008054600181600116156101000203166002900480601f0160208091040260200160405190810160405280929190818152602001828054600181600116156101000203166002900480156102115780601f106101e657610100808354040283529160200191610211565b820191906000526020600020905b8154815290600101906020018083116101f457829003601f168201915b5050505050905090565b8060009080519060200190610231929190610235565b5050565b828054600181600116156101000203166002900490600052602060002090601f016020900481019282601f1061027657805160ff19168380011785556102a4565b828001600101855582156102a4579182015b828111156102a3578251825591602001919060010190610288565b5b5090506102b191906102b5565b5090565b6102d791905b808211156102d35760008160009055506001016102bb565b5090565b9056fea165627a7a7230582002798993065e0108ee11d0aba5d0e92334d464244ae9827f4253e8b864a3611a0029",
  "source": "pragma solidity 0.5.4;\r\n\r\ncontract Register {\r\n    string private info;\r\n\r\n    function setInfo(string memory _info) public {\r\n        info = _info;\r\n    }\r\n    \r\n    function getInfo() public view returns (string memory) {\r\n        return info;\r\n    }\r\n}\r\n\r\n",
  "sourcePath": "D:\\BLOCKCHAIN\\RSK\\GITHUB\\truffle-team-rsk\\contracts\\Register.sol",
  "compiler": {
    "name": "solc",
    "version": "0.5.4+commit.9549d8ff.Emscripten.clang"
  },
  "schemaVersion": "3.2.0",
  "updatedAt": "2020-05-28T13:14:50.701Z",
  "networkType": "ethereum",
  "devdoc": {
    "methods": {}
  },
  "userdoc": {
    "methods": {}
  }
}